:10000000C01F0020F10C0000F3510000DD0C0000C7
:10001000DD0C0000DD0C0000DD0C00000000000025
:10002000000000000000000000000000B90E000009
:10003000DD0C000000000000850E0000DD0C00005B
:10004000851000008510000085100000851000005C
:10005000851000008510000085100000851000004C
:10006000851000008510000085100000851000003C
:10007000851000008510000085100000851000002C
:10008000851000008510000085100000851000001C
:10009000851000008510000085100000851000000C
:1000A00085100000851000008510000085100000FC
:1000B00085100000851000008510000085100000EC
:1000C00085100000851000008510000085100000DC
:1000D00085100000851000008510000085100000CC
:1000E00085100000851000008510000085100000BC
:1000F00085100000851000008510000085100000AC
:1001000053B94AB9002908BF00281CBF4FF0FF317E
:100110004FF0FF3000F00CB8ADF1080C6DE904CEE3
:1001200000F008F8DDF804E0DDE9022304B07047D0
:10013000704700BF2DE9F04786468C460846089E6A
:10014000154674461946002B40F0C2808542B2FA2B
:1001500082F245D94AB1C2F1200300FA02FC2EFA1C
:1001600003F3954043EA0C0C94404FEA154EA8B2B5
:10017000BCFBFEF8230C0EFB18CC08FB00F943EA8D
:100180000C43994528D9EB1808F1FF3704D299455B
:1001900002D9A8F102072B44A3EB0903A4B2B3FBD5
:1001A000FEFC0EFB1C330CFB00F044EA0344A042AF
:1001B00014D92C190CF1FF3304D2A04202D9ACF1AE
:1001C00002032C44241A43EA07401EB1D440002302
:1001D00034607360BDE8F0874746DDE76346F1E7CA
:1001E00092BB431B01214FEA154EAFB2B3FBFEFC9D
:1001F000200C0EFB1C330CFB07F840EA0343984528
:1002000062D9EB180CF1FF3004D2984502D9ACF159
:1002100002002B44A3EB0803A4B2B3FBFEFC0EFBCD
:100220001C330CFB07F744EA0344A7424ED92C19B0
:100230000CF1FF3304D2A74202D9ACF102032C44E3
:10024000E41B43EA0040C0E7C2F1200320FA03F1B7
:10025000954090402EFA03F303434FEA154EAFB298
:10026000B1FBFEFC0EFB1C10190C0CFB07F841EA5D
:100270000041884504FA02F422D969180CF1FF30D4
:1002800004D2884502D9ACF102002944A1EB08014F
:100290009BB2B1FBFEFC0EFB1C110CFB07F743EA03
:1002A00001439F420ED9EB180CF1FF3104D29F425B
:1002B00002D9ACF102012B44DB1B41EA004192E779
:1002C0006046E3E76146F7E76046A3E76346B7E7C2
:1002D000834206D916B9002108467BE7C6E900E04B
:1002E000F9E7B3FA83F78FB9834201D3724508D88F
:1002F000BEEB020460EB030301209C461EB9002103
:1003000068E73846FAE7C6E9004CF8E7C7F1200C81
:10031000BB4022FA0CF41C432EFA0CF120FA0CF329
:10032000B84001434FEA14490EFA07F5B3FBF9F858
:100330001FFA84FE09FB18300B0C08FB0EFA43EA87
:1003400000439A4502FA07F240D9E31808F1FF305A
:1003500004D29A4502D9A8F102002344A3EB0A0370
:1003600089B2B3FBF9F809FB183308FB0EFE41EA2A
:1003700003418E452CD9611808F1FF3304D28E4514
:1003800002D9A8F10203214443EA0040A0FB0298ED
:10039000A1EB0E014145CE46434602D306D14D4561
:1003A00004D2B9EB020E68EB04030138002EA6D08C
:1003B000B5EB0E0261EB030101FA0CFC22FA07F324
:1003C0004CEA0303F940C6E9003198E74046C5E727
:1003D0004346D9E710B50B78022B02D0052B18D075
:1003E00010BDCB68012BFBD14A688B68D35C312BE5
:1003F00007D0322B09D0332BF2D1094804F0C2FCCC
:10040000EEE7084804F0BEFCEAE7074804F0BAFC4F
:10041000E6E78368DC6864230A220449A047DFE733
:10042000A8760000B8760000B07600003005002005
:1004300010B52B4B186806F070FC08B9012010BDF0
:100440004FF4D011274804F092FC0028F6DB4FF45B
:10045000D011254804F08BFC0028EFDB4FF4D011BD
:10046000224804F084FC0028E8DB1D4B18688368F0
:100470001B68002BE2D000221D4998470028DDD1DF
:100480004FF4D011174804F072FC0028D6DB4FF46B
:10049000D011154804F06BFC0028CFDB4FF4D011CD
:1004A000124804F064FC0028C8DB0D4B1868836810
:1004B0005C684FF0FF336D220E49A0470028BDD184
:1004C000074B18688368DC6864230A220A49A0473E
:1004D0000028B3D14FF47A7004F05EFCFAE700BF55
:1004E000D0000020B8760000B0760000A8760000AA
:1004F000D5030000D40000203005002008B5024BD1
:100500001B68984708BD00BF4401002000B585B0B6
:100510000A460023009301930293039302238DF86C
:100520000230044B01930146684604F09BF905B084
:100530005DF804FBFD040000014B1860704700BF2C
:100540004401002080B505460E461746984603F044
:10055000DFFC034606F056FF0446DFF8189049F822
:100560000030424639463046A84754F8090000F0AA
:100570002DFC00BF080000002DE9F04383B00446C5
:1005800008461546238B13F0080F05D103F0070624
:1005900000230093019354E0012909D043F0200384
:1005A000238385F31188BFF36F8F03B0BDE8F08319
:1005B00043F010032383F4E7204604F0B2FC42E04A
:1005C000D4F814904A466946204604F0C3FC4FF024
:1005D0000008238B03F00707B74269D0A268002AFE
:1005E00066D0012243F00803238385F31188BFF30B
:1005F0006F8F002A64D1009B2BB14B463A46694667
:10060000204604F020FDB8F1000F02D03449204606
:10061000C047EFF31185202383F31288BFF36F8F58
:10062000238B23F008032383238B13F0100F4DD06B
:1006300023F0100323830120268B06F007060028F1
:10064000AFD00228B8D00028ABD0013804282BD86E
:1006500001A353F820F000BFC1050000A906000067
:100660006D06000081060000950600002369D3F89E
:1006700000800621204604F02AFC4FF00009A8E77C
:100680002369D3F804800421204604F020FC4FF0B5
:1006900000099EE72369D3F808800521204604F06D
:1006A00016FC4FF0000994E74FF00008C14690E7B0
:1006B000009A0AB1002295E7B8F1000F92D1B3E792
:1006C0004A463946204604F00AFC94E713F0200F0E
:1006D00004D023F0200323830220ADE70020ABE702
:1006E00075500000014B036000207047C076000089
:1006F00008B5034804F0DDFB024804F0DAFB08BD4E
:10070000C0760000F876000008B5024803F002FF4A
:1007100008BD00BF28770000B0F5680F17D00CD8CF
:1007200040F6BA63984214D0B0F5683F13D03A2827
:1007300001D00120704700207047094B98420CD02F
:10074000084B984201D001207047002070470020DC
:10075000704700207047002070470020704700BF9E
:100760003A00003A2C5F5CA9E8B108B54268B2F5DE
:10077000683F07D00F498A421AD0006802F078FF1C
:10078000002008BD03680022BFF35B8F53E8001F01
:10079000012903D143E800200028F7D1BFF35B8F84
:1007A00004D11046EDE76FF4E04070470248E8E7F7
:1007B0000248E6E72C5F5CA9E98FFFFFEA8FFFFFA5
:1007C00030B308B54268B2F5683F0CD012498A428E
:1007D0001CD000684FF0FF324FF0FF3302F0C8FE2C
:1007E00088B10E480FE003680122BFF35B8F53E826
:1007F000001F002903D143E800200028F7D1BFF3F0
:100800005B8F01D1002008BD0448FCE70448FAE7EB
:100810006FF4E040704700BF2C5F5CA9E98FFFFFD9
:10082000EA8FFFFF10B50446A8B16368B3F5683FCF
:1008300010D0B3F5680F0DD00D4A93420AD013F4CF
:10084000686F0DD021680B4806F0C7FA00232360BB
:10085000074B636010BD084B5B6808489847E4E7A6
:10086000236800221A605A609A60DA601A61EFE722
:100870002C5F5CA93C0A0020280200203077000091
:1008800010B5044668B36068B0F5683F28D0B0F58D
:10089000680F25D0174B984228D0FFF73DFFC0B115
:1008A0004FF0FF324FF0FF332146134802F02EFE87
:1008B00008B923681BB9114B5B6811489847236836
:1008C00000221A605A609A60DA601A614FF4686315
:1008D0006360206806F0CCFA636843F03A03636013
:1008E00010BD064B5B6807489847CCE72368002B90
:1008F000D3D1D5E72C5F5CA93C0A00202802002058
:10090000587700003077000008B5402314220449CE
:10091000044806F054FA0449044803F06DFE08BD8B
:100920003C0500203C0A0020887700009C770000EE
:1009300030BFFFF7FDBF00BF38B50446054D2A465E
:10094000054906F049FD054A0021601906F052FDEF
:1009500038BD00BF000000008C76000004000000DD
:1009600070B50646064D074B1D444C1B2046FFF74D
:10097000E3FF083CC6F8A44005F1080070BD00BFC5
:100980000000000004000000074B9B6893F90E2054
:10099000002A08DB044A5269934204D0034A536890
:1009A00043F0805353607047CC0F002000ED00E00F
:1009B00038B51546204B9B6A13F4805F19D1162475
:1009C0001D4B9B6A13F4006F00D018241A4B9B6ACE
:1009D00013F4007F10D0184B9A6B9B6A13F4004FEE
:1009E00009D0D9B1144A936A23F4004393621924BD
:1009F00002E01724E4E719240F4B9B6A13F4806F7D
:100A000000D01A240C4B9B6A13F4807F08D10A4B48
:100A10009B6A13F4005F04D01C2402E01924EBE766
:100A20001B24054A936A43F47F439362012104F037
:100A3000E6FB2870204638BD00ED00E0174B9B6AAE
:100A400013F0007F25D11D20144B9B6A13F0807F8B
:100A500000D01F20114B9B6A13F4002F00D02120DF
:100A60000E4B9B6A13F4802F00D022200B4B9B6A05
:100A700013F4003F00D02320084B9B6A13F4803FFF
:100A800009D1064A936A6FEA03436FEA13439362FC
:100A900070471E20D8E72420F3E700BF00ED00E0F8
:100AA00081690D4B5A6942F480725A61BFF34F8FCE
:100AB000BFF36F8F31F8021C5A6922F480725A61B9
:100AC000BFF34F8FBFF36F8F4DF60273994201D082
:100AD000002070470120704700ED00E070B504462B
:100AE0001646324B9B6A13F0100F1AD110252F4B6C
:100AF0009B6A13F0080F00D012252C4B9B6A13F051
:100B0000020F10D0294B586B9B6A13F0800F3DD019
:100B100000293FD0254A936A23F08003936213256E
:100B200003E01125E3E76FF01500204B9B6A13F0FB
:100B3000010F00D014251D4B9B6A13F0200F00D02D
:100B400015251A4B9B6A13F0100F04D1174B9B6AA3
:100B500013F0020F04D0154B5B6813F4006F1BD128
:100B6000124B9B6A13F0200F04D0104A536A23F4EF
:100B7000005353620D4A936A43F0FF0393620121CD
:100B8000204604F03CFB3070284670BD6FF0150025
:100B90001325CAE71325C8E7214600F00BFA002801
:100BA000DED080F309880225DAE700BF00ED00E01F
:100BB00038B5054600230B701A4BD86A10F00200B6
:100BC0002DD10C46DB6A002B2ADB164BD86A10F0BD
:100BD000804025D02846FFF763FF08B128681FE052
:100BE000104B9B6A13F0FF0F0DD10E4B986A10F457
:100BF0007F400ED10B4B9B6AB3F5803F10D3284644
:100C0000FFF71CFF0CE0224601212846FFF766FF94
:100C100006E0224601212846FFF7CAFE00E0002038
:100C200038BD00BF00ED00E030B58BB00C46264B60
:100C30005968C1F30801002383F31188BFF36F8F54
:100C400002F07F43B3F17F4F15D102F00C03082B64
:100C500014D012F0080F0BD000250DF1270220460A
:100C600004F0D2FA86469DF8273053B10BB030BD60
:100C700004460125F1E700252C46EEE700252C4629
:100C8000EBE70DF1040C20686168A268E368ACE84A
:100C90000F0020696169A269E369ACE80F0045B102
:100CA000C3F308025AB96FEA53236FEA4323089348
:100CB00005E0089B23F4FF7323F00103089301A9C7
:100CC000704604F087FAD1E700ED00E0024A53696C
:100CD00043F010035361704700ED00E0EFF308802C
:100CE000EFF3098101B57246FFF79EFF01BD00BF1A
:100CF000002013490870002080F31488BFF36F8F21
:100D000001F0B6FC00200F490860BFF34F8F0E487A
:100D100080F3088800F030F8202080F311880B4819
:100D20004FF40461401880F30988EFF31480022126
:100D3000084380F31488BFF36F8F00F0FDF80000C4
:100D4000E011002094ED00E0C01F00200012002000
:100D5000084BD3F89000C0F30720002306E0054AB3
:100D6000C2F898300021C2F8A01001338342F6DBAC
:100D7000704700BF00ED00E010B572B6002484F3A8
:100D80001388FFF7E5FF234608E003F120010E4A30
:100D90004FF0FF3042F821000133DBB2072BF4D9CA
:100DA000002308E003F16001074A4FF0FF3042F8EA
:100DB00021000133DBB2072BF4D962B6BFF34F8FAA
:100DC000BFF36F8F10BD00BF00E100E008B50A4B14
:100DD0009B68834202D006F0E3F908BDEFF3058378
:100DE000002BF8D0054B5A6842F080525A605A6A7C
:100DF00022F400425A62EEE7CC0F002000ED00E042
:100E00000A4A9368C3F8A8006FF00A01C3F8AC104F
:100E100007494B6843F080534B60002383F31188EC
:100E2000BFF36F8F9368D3F8AC007047CC0F0020EE
:100E300000ED00E010B50446EFF31183202383F3A7
:100E40001288BFF36F8F0C4B586998600B4B4FF0B3
:100E500000625A60D0F8A420094B1A60D0F8A8307C
:100E60000022C0F8A82083F31188BFF36F8F00F031
:100E700027F9204610BD00BFCC0F002000ED00E098
:100E8000580A00200B498A684FF030001044EFF3F5
:100E9000098C80E8F01F74467046FFF7CBFFA6462A
:100EA00004498A6802F1300090E8F01F8CF3098849
:100EB00070470000CC0F00201EF0040F0CBFEFF3B2
:100EC0000880EFF30980816911F8021C0229FFD024
:100ED00001B504F088F901BD002807DB00F01F020E
:100EE000400901239340024A42F82030704700BF76
:100EF00000E100E0002808DB4901C9B200F16040D0
:100F000000F5614080F80013704700F00F004901C0
:100F1000C9B2014B1954704714ED00E04209054B6A
:100F200053F8222000F01F00012303FA00F01040C4
:100F3000704700BF00E100E008B50B4B0B4A22F000
:100F40007F029A60BFF34F8FBFF36F8FD3F8882073
:100F500022F47002C3F8882002F020FA03F092F81D
:100F600000F076F802F078FA00ED00E000000000F2
:100F700010B4A2F120040E4942F8081C21F001012E
:100F800042F8081C42F8203C019B42F81C3C029BA2
:100F900042F8183C039B42F8143C4FF0807342F82F
:100FA000043C04650023C0F8A83010BC704700BFA3
:100FB00045050000104B9B68BBB110F1160F0BD01C
:100FC000D3F89420A2F1400C844510D8824210D965
:100FD0008A4207D800207047D3F894208A4201D86B
:100FE00000207047D3F8940070470020704700201D
:100FF00070470020704700BFCC0F002008B50D4699
:1010000014460C4A9060D0F8A4200B4B1A6000F0F4
:1010100057F8A446644685F309884FF00000074B53
:10102000984720464FF000014FF000024FF00003B8
:10103000034C2047CC0F0020580A002071520000BA
:1010400045050000014B10221A61704700ED00E0D9
:10105000002206E003F00F030949194420230B7610
:1010600001322F2A0ADC53B2002BF3DB03F1604379
:1010700003F56143202183F80013F1E7704700BFB7
:10108000FCEC00E008B5EFF30583103B044A02EBEB
:10109000C301496852F833008847FFF775FC08BD63
:1010A000C874000008B5034B034A0121034804F04B
:1010B00032FA08BD0000042000000020AC770000D8
:1010C00008B5D0F89430403B0448036040234360A7
:1010D000034B8360012104F022FA08BD5C0A002062
:1010E00000000B15084AC2F898000B6823F01F0394
:1010F000034343F01003C2F89C308B6843F00103B4
:10110000C2F8A030704700BF00ED00E0084BD3F8F4
:101110009030C3F30723013B984205D810B504462D
:10112000FFF7E0FF204610BD6FF01500704700BFCD
:1011300000ED00E010B5034C0123227804F0EBF839
:10114000207010BDDC11002008B500230B4A127876
:1011500004F0E1F810F1160F0FD0024606E0084B3C
:10116000C3F898200021C3F8A0100132044BD3F833
:101170009030C3F307239342F1DC08BDDC1100205B
:1011800000ED00E0044B0522C3F89420BFF34F8F1D
:10119000BFF36F8F704700BF00ED00E0BFF35F8FBC
:1011A000024B0022C3F89420704700BF00ED00E01E
:1011B00038B51C4B1D681C4BD3F89030C3F3072384
:1011C0009D422BD8FFF7EAFF002409E0154B5B682E
:1011D00004EB440103EB81012046FFF783FF013458
:1011E000A542F3D81148057004F0BDF810F1160FB0
:1011F00013D00E4B1A780C4BD3F89030C3F307235F
:101200009A4207DA084BC3F898200021C3F8A010CF
:101210000132F0E7FFF7B6FF002038BD4FF0FF3096
:10122000FBE700BFB877000000ED00E0DC11002014
:1012300008B5024B1B689847002008BD680A0020CB
:10124000034B1860034A937843F00203937070478E
:10125000680A00206801002008B5064921F007014E
:10126000C1F1005202F58022034803F0DEFD0020A8
:1012700008BD00BF072000206C0A002008B501232C
:101280000A4AC2F840354FF08042C2F8783504F07F
:101290004FF920B14FF080430122C3F838264FF0B8
:1012A00080430122C3F88025002008BD00E00140F2
:1012B00030B108B5034B800143F00103984708BDE6
:1012C000704700BFA076000000487047CC0A00209D
:1012D000034BC01A8010034B03FB00F0704700BFA4
:1012E0008C0A0020B76DDBB638B505460C46FFF713
:1012F000EFFF01464022034804F0B8F901462846B2
:10130000A04738BD7874000030B583B005460C4660
:10131000FFF7DEFF0146402300932346054A0648B7
:1013200004F0BEF9011E01DB03B030BD2846A04722
:10133000FAE700BFE95600007874000008B510B164
:1013400001280DD008BD0021084804F01DF983686C
:1013500013F0070FF6D10021044804F075F9F1E706
:101360000121024804F070F9ECE700BF7874000036
:1013700010B582B0EFF31184202383F31288BFF3FA
:101380006F8F154A136843F00201116013F0010FCB
:1013900009D1002384F31188BFF36F8FB3B904F030
:1013A000ABF902B010BD0DF1070201214FF08040F2
:1013B00004F0CEF89DF80730012B01D00023E9E7B7
:1013C000FFF782FF04F02EF90123E3E70021034831
:1013D00004F03AF9E5E700BFDC0A00207874000069
:1013E00010B5EFF31184202383F31288BFF36F8FBE
:1013F000074A136823F00201116013F0010F04D0B3
:1014000084F31188BFF36F8F10BD04F07FF9F7E705
:10141000DC0A002070B582B00546012807D14FF0E4
:101420008043D3F81C3403F00303012B4BD005F0A9
:1014300026FD044618B9284B1B78002B38D1EFF352
:101440001186202383F31288BFF36F8F012424B900
:101450004FF080430222C3F8082301AA00214FF075
:10146000804004F075F820B1019B012B26D0012D9E
:1014700024D0FCB1304603F00FFF4FF08043D3F887
:101480001835002BE9D14FF08043D3F80431002BFD
:10149000E3D04FF080430022C3F80421D3F80421A5
:1014A0000122C3F818250D49C1F880219A60D4E7BC
:1014B0000026CCE7012004F033F9DEE72CB186F3F7
:1014C0001188BFF36F8F02B070BD4FF080430222CE
:1014D000C3F80423F7E700BFE011002000E100E0BB
:1014E00000B585B0CDF800D0CDF804D0002302932C
:1014F000012303936B46074A04F0EEF8002805DB4E
:101500004FF480420023684602F016F905B05DF8FA
:1015100004FB00BF4D57000070B5064600220121B4
:10152000104603F099FE114801F0FAF9104B984269
:1015300019D101F009FA0024012C12D821463046B5
:1015400004F022F805462146304604F028F80949FF
:1015500003F09EFD002805DB0123AB601C44E4B2D0
:10156000EAE7002070BD6FF00400FBE73D130000C8
:101570000000AD0BE877000010B50446104B0121C8
:10158000BFF35B8F53E8002F43E800100028F9D128
:10159000BFF35B8F1AB1631E012B0DD910BD094833
:1015A00003F0FDFF084900234B608B60CB600123F3
:1015B0008B6003F08AFDEEE72046FFF72BFFEDE797
:1015C000880A002078740000780A002010B50446CC
:1015D0000A2806D0E1B206488368DB6998472046AE
:1015E00010BD03488368DB690D219847F2E700BF0F
:1015F000B474000010B5044C2046FFF721FE2046CD
:10160000FEF79AFF10BD00BFCD15000008B50548D4
:1016100005F083FB18B1FFF7EDFF002008BD6FF068
:101620001200FBE7B4740000F0B51C46059F069E4F
:1016300000F01F0C400936D0012837D1284D0CF599
:10164000E07355F8233099B301209AB34FF0020E9E
:1016500040EA0E008CB34FF00C0E40EA0E007FB350
:101660004FF4E06E40EA0E006EB34FF4403E40EAA5
:101670000E0023EA000049B30B784AB312785200F7
:1016800013433CB32278920013432FB33A781202EB
:1016900013431EB332781204134303430CF5E07C6A
:1016A00045F82C30F0BD4FF0A045C8E70025C6E74F
:1016B0000020CAE74FF0000ECAE74FF0000ECCE75B
:1016C0004FF0000ECEE74FF0000ED0E70023D4E736
:1016D0000022D5E70022D7E70022D9E70022DBE786
:1016E0000003005000F01F03400909D001280AD16F
:1016F000064A03F5E07352F8230000F0010070473A
:101700004FF0A042F5E70022F3E700BF00030050CE
:1017100028B1012801D103487047002070470248D2
:10172000704700BF8C740000A07400002DE9F047E2
:1017300086B0884615469946446801F01F07237B0A
:1017400047EA4317204604F068F8002853D0B5F55F
:10175000001F2AD00DF10C0A002603960496494674
:10176000284604F097F88DF80C0000960196029632
:10177000CDF804A0A36823FA08F313F0010F02D1F7
:10178000B5F1A07F18D010346A463946204605F0DE
:1017900089FA1C4B984231D101223946204605F086
:1017A000A5FA002006B0BDE8F087394604F1100024
:1017B00005F0A0FA0020F5E73846FFF793FF002870
:1017C000E1D104F110050DF117023946284605F064
:1017D00075FA0D4B984203D00DF117030493D2E72D
:1017E0000DF11701284605F07DFA064B9842F3D01B
:1017F0006FF00B00D6E76FF08500D3E76FF01500B0
:10180000D0E700BF0000AD0B0400AD0BF0B589B010
:101810000F461446456801F01F062B7B46EA431627
:10182000104603F0FFFF8DF81E0040F20633234000
:10183000B3F5837F54D016D8062B4DD006D9B3F517
:10184000807F0DD101238DF81D3024E003B3022BDE
:1018500003D104238DF81D301DE06FF0150039E031
:101860006FF0150036E040F2022293423CD0B3F50F
:10187000407F03D103238DF81D300CE0B3F5007FCA
:1018800003D102238DF81D3005E06FF0150021E033
:1018900000238DF81D3014F4002F29D06A6801232D
:1018A000BB40C2F80835284603F0B7FF48B31035EF
:1018B0000DF11F023146284605F000FA074614F4E0
:1018C000403F37D13146284605F004FA3C4B9F4251
:1018D0006ED0002009B0F0BD06238DF81D30DAE788
:1018E00007238DF81D30D6E705238DF81D30D2E78C
:1018F00014F4802FD7D06A680123BB40C2F80C359E
:10190000D1E7C4F340438DF8083014F4803F0CBF96
:10191000012300238DF81030002401940DF11D03E4
:1019200000930DF11E0304AA02A93046FFF77CFEC6
:101930002046CFE702AA0023029303930493059362
:101940000693059204AA3146284605F0ABF91C4BD4
:1019500098421DD114F4003F1DD09DF81D308DF824
:10196000103014F4803F0CBF012300238DF8113098
:101970009DF81E308DF81230002304AA3146284607
:1019800005F094F90E4B9842A0D06FF01500A1E736
:101990006FF015009EE700230493059306930DF165
:1019A0001E03049304AA3146284605F07BF9E9E7B3
:1019B0009DF81F10284605F091F900208AE700BF26
:1019C0000000AD0B10B54468204603F026FF08B9AF
:1019D000002010BD1034204605F078F908B1002031
:1019E000F7E70021204605F06DF9094B98420BD12D
:1019F00000220849204605F05DF900220521062055
:101A000003F02AFC0020E4E76FF00400E1E700BFE8
:101A10000000AD0BCD58000070B400F01F0C400961
:101A200019D001281AD10E4D0CF5E07055F8206040
:101A30000C4C344041EA420141EA83039DF80C20FA
:101A400043EA02239DF8102043EA0243234345F86A
:101A5000203070BC70474FF0A045E5E70025E3E774
:101A600000030050F0F8FCFF00F01F01400907D010
:101A7000012808D1054A01238B40C2F80835704778
:101A80004FF0A042F7E70022F5E700BF0003005047
:101A900000F01F01400907D0012808D1054A0123A1
:101AA0008B40C2F80C3570474FF0A042F7E7002298
:101AB000F5E700BF000300502DE9F04F85B08046E8
:101AC0008B460392002423E04FF0FF3638E0039B5F
:101AD000C3F80C65012702973946B6F1FF3F15D0D0
:101AE000B1F1FF3F40F0248158F80A3013F4004F61
:101AF00040F02281029D00220192CDF80090C3F3B4
:101B000041233A4629463046FFF786FF0134E4B2C6
:101B10005C4580F013814FEA840A58F82430C3F3FF
:101B2000C725C3F3C322C3F3080615F0080540F028
:101B30000781874911F8029040F2FF129642C3D004
:101B40005B0C222B00F2FF8001A252F823F000BFB1
:101B5000CF1A0000DD1B0000ED1B0000FB1B000086
:101B60000B1C00001B1C0000291C0000471D00006E
:101B7000471D0000471D0000471D0000391C0000E4
:101B80004F1C0000471D0000471D0000471D0000BE
:101B9000471D0000471D0000471D0000471D0000B5
:101BA000471D0000471D0000651C0000791C000057
:101BB0008D1C0000A11C0000471D0000471D0000F7
:101BC000471D0000B51C0000C51C0000D31C000010
:101BD000E31C0000F31C0000031D0000039BC3F87E
:101BE00014652F4602954FF0FF3176E7039BC3F84B
:101BF00008650127029739466FE7039BC3F8106514
:101C00002F4602954FF0FF3167E7039BC3F8086545
:101C10002F460123029300215FE7039BC3F80C6565
:101C200001270297002158E7039BC3F810652F4650
:101C300002954FF0FF3150E7039BC3F80865B9F1F7
:101C4000000F65D02F4602954FF0FF3145E7039B0B
:101C5000C3F80C65B9F1000F62D02F4602954FF022
:101C6000FF313AE7039BC3F8606558F80A10C1F3E7
:101C700000410127029730E7039BC3F8646558F8D9
:101C80000A10C1F300410127029726E7039BC3F81E
:101C9000686558F80A10C1F30041012702971CE754
:101CA000039BC3F86C6558F80A10C1F30041012783
:101CB000029712E7039BC3F82465029501274FF0B2
:101CC000FF310AE7039BC3F82865012702973946CD
:101CD00003E7039BC3F83065029501274FF0FF31FE
:101CE000FBE6039BC3F83465029501274FF0FF31F3
:101CF000F3E6039BC3F83865029501274FF0FF31E7
:101D0000EBE6039BC3F83C65012702973946E4E6FE
:101D10004F46CDF808904FF0FF314FF00609DCE652
:101D20004F46CDF808904FF0FF314FF00609D4E64A
:101D3000304603F0F3FDD7E60127DCE6002004E09F
:101D40006FF0150001E06FF0850005B0BDE8F08F81
:101D5000A478000043681A68B1F5164F6FD03AD8DE
:101D6000B1F5165F6ED00AD9B1F5E14F75D024D91F
:101D700047F6122399422BD14FF4000313E0B1F53B
:101D8000966F61D007D9B1F5166F63D0B1F5965F44
:101D900010D13C4B07E0B1F5967F58D0B1F5167FD6
:101DA00005D14FF41C33C2F82435002070476FF082
:101DB000150070476FF015007047B1F5615F4ED0A8
:101DC000B1F5964F01D1304BEDE76FF0150070473C
:101DD0006FF015007047B1F5613F42D009D9B1F5F8
:101DE000612F46D01FD9294B994248D14FF08053DB
:101DF000D9E7B1F5963F37D005D9B1F5E13F0FD11D
:101E00004FF0EB73CFE74DF6C02399422ED0B1F5DA
:101E1000614F02D14FF46B03C5E76FF015007047B7
:101E20006FF0150070471A4B994225D0B1F5E12F9C
:101E300002D14FF0E863B6E76FF0150070474FF43A
:101E40001D03B0E7134BAEE74FF49E23ABE74FF40F
:101E5000A033A8E74FF41D23A5E70F4BA3E70F4BD3
:101E6000A1E74FF06C739EE70D4B9CE74FF46503C1
:101E700099E74FF0706396E74FF0806393E76FF058
:101E80001500704700B0130000A04E0040420F0044
:101E900090D003000050270000C0750000F03A0009
:101EA00000903A01F8B505460E46076904F0E7FFD1
:101EB00010B9194B1B787BB9EFF31184202383F3FE
:101EC0001288BFF36F8F284603F0A2FD48B984F350
:101ED0001188BFF36F8FEFE7284603F0AEFE04468C
:101EE00007E0FB682BB1DA681AB1D3F8BC20002AEE
:101EF0000BDB7B691E7001227969284603F0AAFD7D
:101F000084F31188BFF36F8FF8BD6A681268D2F846
:101F10004C25C3F8BC20ECE7E0110020F0B583B0FD
:101F200005461E4604694368D3F800C0EFF31187E5
:101F3000202383F31288BFF36F8FE368D868E8B972
:101F4000DA60E36899604FF48003CCF8043301F061
:101F50006043B3F1005F18D1E3681961E3685A6127
:101F60002146284603F0A2FD87F31188BFF36F8F47
:101F7000E37A012B10D0002003B0F0BD87F3118865
:101F8000BFF36F8F6FF00F00F6E7E3680022DA61AE
:101F9000204604F01AF8E3E7B6F1FF3F01D1002034
:101FA000EAE7E468203426EAE676F117C90341EA55
:101FB0005641F60309483018094A4FF0000341F131
:101FC0000001FEF79DF802460B4600200021CDE9F6
:101FD0000001204602F016FA0020CDE73F420F0034
:101FE00040420F0010B588B00469002303930493A6
:101FF00005930693079303238DF80C3003A903F090
:1020000070FDE3685A6FB2F1FF3F01D108B010BD17
:10201000DA67E36803F18004986F20EAE070C11783
:10202000C90341EA5041C003084BC018084A4FF0A9
:10203000000341F10001FEF763F802460B460090F1
:102040000191204602F0DEF9E0E700BF3F420F00B9
:1020500040420F0038B505460C4601F11C0001F066
:1020600089F80A4B98420DD105F10C0205F59071E3
:10207000207F00F005FC237F0120984000F0FAFB50
:10208000002038BD6FF00400FBE700BF0000AD0B7F
:1020900070B5056943681C6803F001FD064690BBF6
:1020A000EB680122C3F8C020184BC4F8043308239E
:1020B000C4F80035D4F84C31A3B16260D4F844318F
:1020C0001BB9D4F82431002BF8D00023C4F84C31CC
:1020D000D4F84C21C4F81031D4F81021C4F844319C
:1020E000D4F84431E86800220949803005F0E2F86C
:1020F000EB68C3F8B450E86800220649203005F0C8
:10210000D9F8EB685D65304670BD00BF10020A006B
:10211000615D0000555D000021F07F4100F5A87071
:10212000014B43F820107047001001404FF48033FA
:102130008340024AC2F84433704700BF0010014098
:102140004FF480338340024AC2F84833704700BFDF
:1021500000100140014BD3F8040570470010014006
:102160002DE9F843054689469046FFF7E9FF2846E2
:1021700004F0A1F94E46032710E0FFF7EBFF0446F9
:10218000494604F087F9B0F5000F26D9284604F037
:1021900092F9B8F1000F22D13E1901373146284695
:1021A000FFF7BAFF2846FFF7C1FFFFF7D3FF04464A
:1021B000C11C304604F06EF90A4B98420AD92846F1
:1021C00004F06CF90028D8D1B8F1000FE4D06FF01A
:1021D000150000E00020BDE8F8830020FBE76FF069
:1021E0001500F8E7FDFF7F00034B044AC3F80823FE
:1021F000C3F84823704700BF0010014003000F00E0
:1022000010B5012383406FEA030C0E4ABFF35B8FC6
:1022100052E8001F01EA0C0E42E800E4002CF7D15E
:10222000BFF35B8F4FF4803282400748C0F8082329
:10223000BFF35F8FBFF36F8F0B4214BF01200020ED
:1022400010BD00BF040B0020001001404FF480338C
:102250008340144AD2F80423134201D1002070476E
:1022600010B5044601238340DB430F49BFF35B8F66
:1022700051E8002F02EA030041E8000CBCF1000F16
:10228000F6D1BFF35B8F22FA04F313F0010F03D1F1
:10229000204604F003F918B1204604F00CF901209F
:1022A00010BD00BF00100140000B002001B97047B5
:1022B00001238340114ABFF35B8F52E800CF4CEA01
:1022C000030C42E800C10029F7D1BFF35B8F4FF444
:1022D000803383400A4AC2F80433BFF35B8F094B53
:1022E0001B68BFF35B8FC34013F0010FDFD0064BB9
:1022F0004FF40032C3F80021D9E700BF040B0020DF
:1023000000100140000B002000E100E038B5144649
:102310001046194604F0DBF802460D490B68E01A36
:102320001B184C6844F100040B604C60A2F50013CC
:10233000B3F5400F09D2074B1B68190A1B06D418C6
:1023400041F10005044BC3E9004501F05DFF38BDD4
:10235000F0020020080B0020F802002038B50D4BD9
:102360001C68250A2406BFF35F8FFFF7F3FE0346C0
:10237000001945F10001B3F5801F0AD2064BD3E9DD
:102380000023904271EB030303D210F1807041F1FE
:10239000000138BD080B0020F80200202DE9F041B3
:1023A000064614461D469DF820801046194604F046
:1023B0008EF80746FFF7D2FFA04271EB050319D252
:1023C000201A65EB01011D4B984271F100012FD2DB
:1023D0001B4B03EB0613D3E90223AB4208BFA24217
:1023E00001D1002018E0424639463046FFF7B8FEDA
:1023F00090B11BE0B8F1000F1DD10123B340114A89
:10240000BFF35B8F52E8000F184342E80001002938
:10241000F8D1BFF35B8F0020094B320103EB0616A6
:10242000C6E9024506999950079B7360BDE8F081A3
:102430006FF01500FAE76FF01500F7E70100800074
:10244000E0020020000B002030B585B0FFF7CCFE85
:1024500000231E4AC2F80835002B25DD1B4C02253F
:10246000C4F804531A4B4FF40032C3F88021002201
:102470000121112002F0F0FE112002F0E8FE0123FC
:10248000A3602360134A1360002402940194124B4A
:102490000093124A0023204604F029F82846FFF74B
:1024A0006BF8204605B030BD0D4A02EB03124FF029
:1024B000FF304FF0FF31C2E902014FF480329A4001
:1024C0000249C1F804230133C6E700BF00100140F0
:1024D00000E100E0040B00200D230000FFFF7F005F
:1024E000E00200202DE9F04782B00446FFF7AEFE7F
:1024F00010B902B0BDE8F087FFF730FF82460D4605
:1025000003F0E8FF0646154B03EB0413D3E90289F9
:10251000C24575EB09050BD20025304603F0E2FFFA
:10252000002DE6D0009742464B462046A847E0E7FC
:102530000A4A230102EB0411D5584F680020D050FD
:102540004FF0FF324FF0FF33C1E902232046FFF77F
:10255000F7FD204603F0AFFFDFE700BFE0020020F9
:1025600010B50D4BD3F8043313F0020F03D1002440
:10257000002C0BDD10BD0221074803F055FF002899
:10258000F5D0064A136801331360F0E72046FFF7E1
:10259000A9FF0134ECE700BF00100140080B002048
:1025A00010B584B0B0F1FF3F18D001281BDD154BEA
:1025B0009842A8BF18460446134B01221A70FFF731
:1025C000CDFE124B1A685B68801AB0F5000F0CD272
:1025D0000444B4F5000F09D30A4C07E00A4B00226B
:1025E0001A70084CEBE70124E6E7064C00201219AC
:1025F000029001900649009143F1000303F077FF38
:1026000004B010BDFFFF7F00DF110020F0020020AA
:102610000D23000008B5FFF7A1FE024B1B68C01A8E
:1026200008BD00BFF0020020BFF34F8F0549CA6804
:1026300002F4E062044B1343CB60BFF34F8F00BF43
:10264000FDE700BF00ED00E00400FA05024BD3F8FF
:102650000034002BFAD0704700E0014008B5034B6E
:10266000C3F80405FFF7F2FF08BD00BF00E001401A
:1026700038B503F064FF40B14FF080430022C3F847
:102680000C21C3F81021C3F8382503F062FF00289D
:1026900046D04FF08052D2F804144E4BC3F82015A8
:1026A000D2F80814C3F82415D2F80C14C3F828156E
:1026B000D2F81014C3F82C15D2F81414C3F830153E
:1026C000D2F81814C3F83415D2F81C14C3F8401506
:1026D000D2F82014C3F84415D2F82414C3F84815CE
:1026E000D2F82814C3F84C15D2F82C14C3F850159E
:1026F000D2F83014C3F85415D2F83414C3F8601566
:10270000D2F83814C3F86415D2F83C14C3F868152D
:10271000D2F84014C3F86C15D2F84424C3F87025DD
:1027200003F021FF18B12C4B2C4AC3F88C2603F080
:102730002DFF18B12A4BFB22C3F8182503F039FFEF
:1027400070B14FF08041D1F8E43E23F00F034FF019
:102750008052D2F8582202F00F021343C1F8E43E2F
:1027600003F03AFF20B11F4B4FF40072C3F840262C
:1027700003F045FF60B14FF08043D3F8003413F00D
:10278000010F05D04FF080436FF00102C3F8002421
:1027900003F04FFF4FF01023D3F80032002B06DB7D
:1027A0004FF01023D3F80432002B00DB38BD01209A
:1027B000FFF754FF4FF010241225C4F80052FFF722
:1027C00045FFC4F80452FFF741FF0020FFF746FF22
:1027D000FFF72AFF00C0004000500040488103007E
:1027E00000F000400090024010B50468CCB1B4FA8B
:1027F00084F3C3F11F03DBB201229A4024EA0202F0
:10280000BFF35B8F50E800CFA44504D140E8002E11
:10281000BEF1000FF6D1BFF35B8FE6D10B7002481B
:1028200010BD0248FCE700BF0000AD0B0200AD0B7D
:102830000368CB4013F0010F15D100B502680123E6
:102840008B401343BFF35B8F50E800CF944504D116
:1028500040E8003EBEF1000FF6D1BFF35B8FEDD133
:1028600002485DF804FB0248704700BF0000AD0B52
:102870000400AD0B014BC3F80405704700F00140A4
:10288000034BA23043F8301003EBC0035A6070478B
:1028900000F0014070B582B0064618B1012816D08C
:1028A00002B070BD4FF080430222C3F8082301221A
:1028B000DA600022C3F80421D3F8043101238DF833
:1028C00007309E420FD0002542F2107413E04FF003
:1028D00080430122C3F808235A600022C3F8002174
:1028E000D3F80031EAE70DF10705EDE7012003F029
:1028F000B0FE013C0CD02A4631464FF0804003F038
:10290000ACFE28B1002DF1D09DF80730012BEDD0A1
:10291000012EC5D1014B00225A71C1E70C0B0020DA
:10292000064B1B793BB9054B186001221A71002236
:102930005A71034870470348704700BF0C0B0020D2
:102940000000AD0B0C00AD0B08B5064B1B680BB1BE
:1029500003F0A1FE03F09DFE4FF08043C3F818057D
:1029600008BD00BF0C0B002000B583B020B10128CA
:1029700049D003B05DF804FB4FF08043D3F818242E
:10298000D3F8183403F00303019312F4803F13D1FA
:102990004FF08043D3F8143413F0010F10D103F03B
:1029A00078FE0190019A4FF08043C3F81825082261
:1029B0004FF4827302202AE001A803F075FEF1E7CC
:1029C0004FF08043D3F81C3403F00303019301A8B4
:1029D00003F06AFE0028E5D0194B1B682BB14FF0BD
:1029E00080430222C3F80423C3E74FF08043D3F8A7
:1029F0000431002BF9D04FF080430022C3F80421AA
:102A0000D3F80431B5E700224FF48073012003F1BD
:102A1000804300211960196802F180420121116090
:102A2000074A126822B14FF08043C3F80403A0E7BD
:102A30001A68002AFCD000221A601B6899E700BFC0
:102A40000C0B002008B54FF08043D3F800318BB158
:102A50004FF080430022C3F80021D3F80021012267
:102A6000C3F80823154B5B7923B9144B5A711B68C3
:102A7000002098474FF08043D3F804319BB14FF0CA
:102A800080430022C3F80421D3F80421D3F818248A
:102A9000D3F8183413F0030F06D14FF0804301220E
:102AA000C3F818259A6008BD4FF080430222C3F88E
:102AB0000823024B1B6801209847F4E70C0B002009
:102AC00070B400F01F0C400919D001281AD10E4D26
:102AD0000CF5E07055F820600C4C344041EA42019E
:102AE00041EA83039DF80C2043EA02239DF810205D
:102AF00043EA0243234345F8203070BC70474FF04F
:102B0000A045E5E70025E3E700030050F0F8FCFFEF
:102B1000F0B51C46059F069E00F01F0C400936D0FC
:102B2000012837D1284D0CF5E07355F8233099B3BF
:102B300001209AB34FF0020E40EA0E008CB34FF022
:102B40000C0E40EA0E007FB34FF4E06E40EA0E0038
:102B50006EB34FF4403E40EA0E0023EA000049B352
:102B60000B784AB31278520013433CB32278920098
:102B700013432FB33A78120213431EB33278120470
:102B8000134303430CF5E07C45F82C30F0BD4FF0C7
:102B9000A045C8E70025C6E70020CAE74FF0000EB1
:102BA000CAE74FF0000ECCE74FF0000ECEE74FF033
:102BB000000ED0E70023D4E70022D5E70022D7E7B4
:102BC0000022D9E70022DBE70003005000F01F02DB
:102BD000400908D0012809D1054BD3F81005D04091
:102BE00000F0010070474FF0A043F6E70023F4E740
:102BF0000003005000F01F03400909D001280AD14A
:102C0000064A03F5E07352F82300C0F30140704711
:102C10004FF0A042F5E70022F3E700BF00030050A9
:102C200000B583B084468E460D4B93E8030002AB9B
:102C300003E9030063460BE002A901EB830151F8AD
:102C4000081CD1F8200542F8040BC1F82005013317
:102C50000CEB0E009842EFD803B05DF804FB00BF08
:102C60009076000000F01F01400907D0012808D12C
:102C7000054A01238B40C2F8203570474FF0A0422F
:102C8000F7E70022F5E700BF000300504309034ABD
:102C9000D35C00F01F001844C0B270471C790000DC
:102CA00000487047980100202DE9F04184B00546A6
:102CB0000C4616461F460846FFF7E8FF804656B307
:102CC0002146284603F0E8FD28B12146284603F0B6
:102CD000A3FD002841D12146284603F0ACFD10B1E8
:102CE0007378012B39D001238DF80F300023019325
:102CF0000096B31C721C0DF10F012046FFF708FF70
:102D00002879FFF7CDFF08F1080230F8123043F0C0
:102D1000030320F81230002F39D02146284603F053
:102D2000BBFD002835D13E782B6806F5A272002144
:102D300043F822102879FFF7B3FF08F1080230F8B2
:102D4000123023F02003DB04DB0C20F812307B78F8
:102D50002BB9114804B0BDE8F0811048FAE7BA7801
:102D6000009222463146286803F0D1FC2879FFF70B
:102D700097FF024608F1080032F810307603B6B229
:102D8000334343F0200322F810300348E2E70248BF
:102D9000E0E70248DEE700BF0000AD0B0400AD0B2A
:102DA00070B506460D46144603F036FD68B130791D
:102DB000FFF776FF06462846FFF768FF083036F82B
:102DC00010305B0B2370024870BD0248FCE700BF67
:102DD0000000AD0B0400AD0B30B583B0054601918A
:102DE000002400E00134012C18D80E4B1B5D03F0C9
:102DF000070202A901EBD30313F8043CD34013F0FC
:102E0000010FEFD005EB840201212046FFF708FFF8
:102E100055F82430002BE5D0012000E0002003B05D
:102E200030BD00BF2C7900002DE9F04182B005468D
:102E3000884616461F4603F07BFEAEB33A4631463F
:102E4000284603F085FD041E20DB2879FFF728FFC4
:102E500040F834602879FFF723FF00EBC400476097
:102E60002879FFF71DFF05464046FFF70FFF0830A2
:102E700035F81030E4B26402A4B2234343F4807303
:102E800025F81030094802B0BDE8F0812879FFF735
:102E900007FF0DF107017830FFF7A6FC034B9842BE
:102EA000F1D19DF80740D0E70048ECE70000AD0BFA
:102EB0002DE9F04385B004460D4617460846FFF756
:102EC000E5FE0646D7F80080B8F1000F28D0294665
:102ED000204603F0D0FC00284FD100238DF80E309F
:102EE0008DF80F300193009343460DF10F020DF161
:102EF0000E012846FFF70CFE2079FFF7D1FE06F100
:102F0000080830F8183023F0020320F81830207930
:102F1000FFF7C6FE30F8183043F0010320F81830F0
:102F20007B68F3B193F80080D3F8049029462046DB
:102F300003F092FC18B3B9F1000F65D12079FFF7C7
:102F4000AFFE083630F8163023F01C0320F8163098
:102F50002079FFF7A5FE30F8163043EA880320F801
:102F60001630BA68002A53D05368126829462046A2
:102F7000FFF75AFF05B0BDE8F0832648FAE720794D
:102F8000FFF78EFE06F1080230F8123023F020031E
:102F9000DB04DB0C20F81230B9F1000FCED0B8F111
:102FA000030F33D87B685B6893F80090B8F1000F8B
:102FB00006D1236809F5A279002243F82920BDE74C
:102FC000404603F071FC0346216809F5A27C51F8E4
:102FD0002C2022F0030241F82C202A464946206882
:102FE00003F07CFB2079FFF75BFE06F1080230F866
:102FF00012304FEA49391FFA89F943EA090343F0CD
:10300000200320F8123099E70248B3E70148B1E7FE
:103010000148AFE70400AD0B0000AD0B38B5054625
:103020000C4603F0EAFB08B9074838BD214628469C
:1030300003F06BFC2146284603F0A5FD204603F073
:10304000C0FB0248F1E700BF0400AD0B0000AD0B70
:1030500070B582B005460E460079FFF721FE90F864
:10306000803013B10B4802B070BD044660220021CD
:10307000103004F0BFF9236F0093002332464FF065
:103080000041286803F0A9FD012384F88030A3677C
:103090000148E8E70C00AD0B0000AD0B2DE9F04353
:1030A00083B080460F46002300930193C96F6846A2
:1030B000FFF792FE4BE094FAA4F4B4FA84F404F01F
:1030C0001F05254B9B5D45EA43152846FFF7DEFDAE
:1030D000083037F81090C9F382090DEB8603E00839
:1030E00004F007041A5C0121A14022EA01021A54EB
:1030F0002846FFF77FFD03464A462946384603F037
:10310000D7FC2846FFF7AEFD02AB03EB860353F86E
:10311000084C002CCFD10136012E0DD80F4B9B5DF2
:1031200007F17C02D90803F00703525C22FA03F38B
:1031300013F0010FEFD0E7E73A6F4FF00041404640
:1031400003F021FBF96F6846FFF746FE08B1002641
:10315000E2E703B0BDE8F083307900002C7900008D
:1031600008B50249024803F083FD08BD980100201C
:103170000060004008B501460148FFF735FB08BD77
:103180001C02002010B5154CA8220021204604F096
:1031900031F9032323616361114AA261114BE36199
:1031A0004FF4806323620023A3626362E3622266BA
:1031B0000D4A62661022A2662367E3666367BFF367
:1031C0005F8F06E0C3F10F020849895C034AD154BE
:1031D00001330F2BF6D9BFF35F8F10BD240F0020F2
:1031E00034790000240B0020140B002040790000EB
:1031F000034B00E01433034A9342FBD3704700BFF4
:1032000078740000C874000038B5EFF311852023EE
:1032100083F31288BFF36F8F054B9C6803F095FD15
:1032200085F31188BFF36F8F2046FDF7CFFD38BDC2
:10323000CC0F002038B505460A4B53F8204002E079
:103240002368984708346B1C064A52F82330A3427F
:1032500006D96368002BF3D0204603F079FDF1E72F
:1032600038BD00BF6479000010B586B0B023114CA2
:1032700003FB004400EB400C00EB80000E4B03EB23
:1032800080030E4A0592012204920F22039200222B
:103290000292019200930A4B4FF4A072094901EB8C
:1032A000CC11204600F070FA637B23F004036373B3
:1032B00006B010BD00030020CC0F002054790000A0
:1032C0002B6E0000401A002008B553EA020102D11B
:1032D00003F001FE08BD0249183000F00FFFF9E7C6
:1032E000D770000010B586B0184C14E0636A0593DF
:1032F000236A0493E3690393A369029363690193C7
:1033000023690093E368A2686168206800F03CFAD2
:1033100023685C6530340E4B9C42E7D300F0F8FC28
:103320000A4C00E030340A4B9C420BD2A26AE36A9A
:10333000B3F1FF3F08BFB2F1FF3FF3D02068FFF7C2
:10334000C3FFEFE700F0FCFC06B010BD48760000BC
:103350004876000008B50A4B01221A700320FFF7D7
:1033600069FFFDF7C5F90420FFF764FFFFF7BAFF17
:10337000FDF75EF8034A137B23F00103137308BDC6
:10338000E0110020B003002008B50146014A0248C0
:10339000FDF734FE55330000B003002008B50348A4
:1033A000034A121A002103F0EBFC08BDE0020020E2
:1033B000E411002010B50446FFF756FFB0230B4977
:1033C00003FB04110A4A04EB840302EB8303D96074
:1033D0001C7404EB4411074B03EB811303F50463E6
:1033E00004EB840402EB8402536010BD0003002050
:1033F000CC0F00200012002070B586B000F0BEFC9B
:10340000104D114B5D61114B059301230493002472
:1034100003940294019400940D4B4FF480620D4983
:10342000284600F0B1F906466B7B23F004036B736A
:10343000284603F0D0FD2046FFF7BCFF304606B01B
:1034400070BD00BFB0030020CC0F00205C790000ED
:1034500055330000C01B002008B50020FFF7EAFE2E
:103460001D4B83F308881D4C636943F4007363614B
:10347000E02384F822300025E57725766576A57669
:1034800084F82050636A43F4E023636284F8235095
:10349000FDF71CFCFDF7D6FD4FF0FF33A362E3629E
:1034A000FDF786FEFDF7FEFD0D4B01245C731C73DA
:1034B000C3F89450C3F89850C3F8A050094A9360D9
:1034C000FFF796FE2046FFF7B5FE0220FFF7B2FE9B
:1034D000FFF792FFFFF758FF401A002000ED00E0D1
:1034E00060040020CC0F002010B5064C002000E046
:1034F0001C34054B9C4204D2204603F049FC0028B2
:10350000F6DA10BD900200209002002030B583B0A2
:103510000D46EFF31181202484F31288BFF36F8FDF
:10352000C46864B12C602368C3608369013383611C
:10353000002081F31188BFF36F8F03B030BD00F11D
:10354000080C53EA020404D100232B606FF00B0037
:10355000EFE7009201930246604600F017FB002857
:10356000EBD1024B9B685B692B60E6E7CC0F002038
:103570002DE9F04182B00446EFF31187202181F359
:103580001288BFF36F8FC16899B9002950D1364BAB
:103590009B6893F90E3023610131E160324B9B68E7
:1035A000A36087F31188BFF36F8F002002B0BDE8DE
:1035B000F08116461D4682682B4B9B689A42E4D0E8
:1035C00055EA060136D092F90E80414693F90E0075
:1035D00003F038FC804534DC4FF00008009601957C
:1035E00022463946214800F0D1FA0028DED0EFF318
:1035F0001185202383F31288BFF36F8FA36843B331
:1036000023689C4223D013B3216993F90E0003F081
:1036100019FC0146204603F020FCE8B9B8F1000F80
:103620001AD185F31188BFF36F8F6FF00A00BDE7E1
:103630002369B0E787F31188BFF36F8F6FF00F0036
:10364000B4E70146204603F008FC8046C6E721693E
:10365000E0E7B8F1000FE4D02946044800F00EFB83
:103660006FF00A00A2E700BFCC0F0020F00F00208F
:1036700038B583687BB304461A4A926893422DD1C9
:10368000C368012B03D9013BC360002038BDEFF3B1
:103690001185202383F31288BFF36F8F016903F034
:1036A000DCFB204603F042FDA06068B190F90E30CB
:1036B00023610024C0F8AC4003F08DFC29460A4881
:1036C00000F0DCFA2046E1E70020E06085F3118895
:1036D000BFF36F8FDAE76FF01500D7E74FF0FF30D9
:1036E000D4E700BFCC0F0020F00F002038B504460F
:1036F000EFF31185202383F31288BFF36F8F03F05C
:1037000015FD48B10022C0F8AC2003F064FC294646
:10371000084800F0B3FA38BDA368E268934207D0C6
:1037200001221344A36085F31188BFF36F8FF2E782
:103730000022F6E7F00F002010B582B0EFF3118100
:10374000202484F31288BFF36F8F846844B1013C56
:10375000846081F31188BFF36F8F002002B010BD29
:1037600053EA020406D0009201930246054800F095
:103770000DFAF3E781F31188BFF36F8F6FF00F003D
:10378000ECE700BFF00F00202DE9F04F85B00446B4
:103790000F4615461E46DDF838A0DDF83C90DDF8F2
:1037A0004080DDF84CB000F158038365C365129B7F
:1037B0000422119903F093FB2A463946204603F070
:1037C00064FB0546CDF80880CDF80490CDF800A044
:1037D0003346024639462046FDF7CAFB002363659F
:1037E0002666C4F864A0C4F86890C4F86C80EFF34F
:1037F0001182202383F31288BFF36F8F124B196A53
:1038000021671C6282F31188BFF36F8FBBF1000F39
:1038100013D01F22594604F1740003F06AFD0023FF
:1038200084F89330084B9B685BB1D3F8A030C4F8A0
:10383000A030284605B0BDE8F08F002384F874302E
:10384000F0E7C4F8A030F4E7CC0F002010B5114B1E
:1038500053F8184F9C420FD074B180B90D4B9B6840
:103860005A7B12F01F0F0AD1A26942B9DA897F2A66
:1038700005D9084A53610BE0064BDC68EDE7054BC0
:103880009B68A34202D0204600F07EFB014B5C61A6
:1038900010BD00BFCC0F002008B5437B90F90D2070
:1038A000002A08DB094B9B68834214BF00200120DB
:1038B000FFF7CCFF08BD03F07F0343734268036842
:1038C00013605A60002303604360EBE7CC0F0020D5
:1038D000B3F1FF3F08BFB2F1FF3F00D1704708B519
:1038E0000249183000F00AFC08BD00BFD770000084
:1038F000427B90F90D30002B33DB70B5044612F09B
:103900001F0F01D1866906B170BD62F07F0242735C
:10391000144B53F8185F9D4208D1354606E06B689A
:10392000636025601C606C6017E035466DB1294608
:10393000204603F0F2FA0028F1DC002DF6D0094B06
:10394000DB699D42F1D02D68F0E7064BDA6903F19F
:103950001801216062601460DC610020FFF776FFCF
:10396000D2E77047CC0F0020437B0B425CD170B58F
:1039700004460D460B43437313F0800F1FD1082DEF
:1039800028D000260120FFF761FF102D45D02046EA
:1039900000F05AFB66B1254B01225A731A730022BC
:1039A000C3F89420C3F89820C3F8A020204A93605D
:1039B000BFF35F8F637B23F06003637370BD03F01D
:1039C0007F0343734268036813605A6000230360F7
:1039D0004360D4E7A3685BB16268236813605A60F0
:1039E000002323606360627B22F002026273A360A3
:1039F00004F1180003F02EFC04F1580003F097FACC
:103A00000B4B9B68A34201D00026BBE7EFF3058375
:103A10000BB90026B6E70126B4E7BFF35F8F637BDF
:103A200023F060036373C9E7704700BF60040020A0
:103A3000CC0F002038B505460C46124B9868437BE6
:103A400013F0600F05D013F0200F07D00821FFF707
:103A50008BFF84F31188BFF36F8F0EE01021F6E720
:103A6000EFF31184202383F31288BFF36F8F03F0E9
:103A7000E7F984F31188BFF36F8F6B7B13F0600F4E
:103A8000EED138BDCC0F0020F8B504460E461546E1
:103A900000F1580703F02EFAB8B1637B55B120222C
:103AA00013436373EFF3058333B131462046FFF7C9
:103AB000C1FF17E04022F3E73946104B986803F046
:103AC00053FA304603F025FA0CE065B10821204690
:103AD000FFF74AFF094B9B68A34206D086F3118883
:103AE000BFF36F8FF8BD1021F1E7EFF30583002BD3
:103AF000F4D1304603F00DFAF4E700BFCC0F0020FC
:103B000038B50546437B90F90D20002A0ADB6B7B14
:103B100063F07F036B731C4B53F8184F9C4213D117
:103B2000002411E003F07F034373426803681360CD
:103B30005A60002303604360E9E763686B602C60B0
:103B40001D60656017E000246CB12146284603F033
:103B5000E4F90028F1DC002CF6D00B4BDB699C4229
:103B6000F1D02468F0E7084BDA6903F11801296005
:103B70006A601560DD61044B9868A84214BF00209C
:103B80000120FFF763FE38BDCC0F002010B50C46B6
:103B900011460A4882680A4B1A60EFF3118320230A
:103BA00083F31288BFF36F8FDDE90223806803F08F
:103BB00006FA2046FDF724F910BD00BFCC0F002007
:103BC000F00F00202DE9F04105460F460023EFF3EA
:103BD0001186202282F31288BFF36F8F184629E0E6
:103BE00063686B602C601D60656017E044466CB1D3
:103BF0002146284603F091F90028F1DC002CF6D08C
:103C00001D4BDB699C42F1D02468F0E71A4BDA695E
:103C100003F1180129606A601560DD610120FFF77A
:103C200015FE012001E0AF73002086F31188BFF379
:103C30006F8F0123F3B96B7B13F01F0FF3D1D5F80E
:103C40001880B8F1000FEED103F07F036B736A6840
:103C50002B6813605A6000232B606B60AF736B7B23
:103C600063F07F036B73044B53F8184F9C42BED133
:103C70004446BCE7BDE8F081CC0F002008B50B46F8
:103C800059B9EFF3058242B9064A506992689042E9
:103C900003D00846FDF7B4F803E083F31188BFF3BF
:103CA0006F8F08BDCC0F002010B5EFF311842023D7
:103CB00083F31288BFF36F8F437B13F0040F04D19B
:103CC00084F31188BFF36F8F10BD23F00403437397
:103CD000FFF70EFE21460248FFF7D0FFF4E700BFD2
:103CE000F00F002008B5034650B9EFF305823AB94A
:103CF000064A51699268914202D0FDF781F803E0CB
:103D000083F31188BFF36F8F08BD00BFCC0F002075
:103D10000023EFF31181202282F31288BFF36F8F0B
:103D200009E0064B9A68D37B013BD37381F311887A
:103D3000BFF36F8F0123002BF3D07047CC0F00200F
:103D400010B50023EFF31184202282F31288BFF311
:103D50006F8F0CE0084B9A68D37B0133D37300203C
:103D6000FFF774FD84F31188BFF36F8F0123002BDD
:103D7000F0D003F006FA10BDCC0F002008B50248C1
:103D800003F00AFA08BD00BFE00F002070B5EFF3A2
:103D90001186202383F31288BFF36F8F1E4B9A681E
:103DA000517B01F07F0151735068116801604860D8
:103DB0000021116051609D686A7B62F07F026A7326
:103DC00053F8184F9C4208D1002406E063686B60EA
:103DD0002C601D60656017E000246CB12146284608
:103DE00003F09BF80028F1DC002CF6D00A4BDB69CD
:103DF0009C42F1D02468F0E7074BDA6903F118011F
:103E000029606A601560DD610120FFF71FFD304603
:103E1000FCF7F6FF70BD00BFCC0F00202DE9F0418C
:103E200050EA010337D004460E466FF001031B1A17
:103E30004FF0FF3262EB0102012B72F100022EDB28
:103E40006FF001052D1AEFF31188202383F31288F8
:103E5000BFF36F8F144FB868144B1860FFF71CFD49
:103E6000B868224633461249183000F047F9BA685C
:103E7000537B43F0100353734046FCF7C1FF03F03C
:103E800006FA281A63EB0303012873F1000300DA32
:103E90000020BDE8F081FFF779FF0020F9E703F08B
:103EA000F6F90519CFE700BFCC0F0020F00F002076
:103EB000D770000008B5B1F1FF3F08BFB0F1FF3F78
:103EC0001DD0FFF7ABFFC217510141EAD06143019A
:103ED0001B1A61EB0201890041EA93719B001B18D8
:103EE00042EB0102D20042EA5372DB0047F6FF7157
:103EF000581842F10002C00B40EA424008BD034B93
:103F0000986803F083F84FF0FF30F7E7CC0F0020FC
:103F1000014B9868704700BFCC0F0020044BC01ABB
:103F2000C010044B03FB00F0034B01221A547047EE
:103F300010050020ABAAAAAAF40F0020C3897F2B8A
:103F400011D80E4B1B687BB190F90E200C4B1B68EF
:103F50009A420CDB437B13F01F0F0AD1094B9842A6
:103F600009D0012300E0002303F001007047002383
:103F7000FAE70023F8E70023F6E700BFFC0F002074
:103F8000F80F00200003002070B505460D4B1E7C85
:103F900006EB46030C4C04EBC304204603F05AF92D
:103FA0000A4B00229A552846FFF7C8FF00B970BD9A
:103FB000074B1A68013AD3170649204600F09EF8CD
:103FC000F5E700BFCC0F002010050020F40F002003
:103FD000FC0F00201D3F000038B5EFF311852023B2
:103FE00083F31288BFF36F8F144B9C68144B1B68CC
:103FF000A34217D0124B00221A60104B1B7C114AAF
:10400000D35C53B12046FFF799FF30B1637B13F0C7
:104010001F0F0FD02046FFF7B7FF85F31188BFF3BE
:104020006F8F38BD2046FFF7AFFF85F31188BFF3D0
:104030006F8FF6E72046FFF763FDEBE7CC0F00201C
:10404000F00F0020F40F0020EFF31181202383F301
:104050001288BFF36F8F0A4B1B6A834204D11A6F19
:10406000074B1A6207E0134613B11A6F8242FAD166
:104070000BB1026F1A6781F31188BFF36F8F70471E
:10408000CC0F002008B50648064A121A064902F06D
:104090007BFE064A0649074802F076FE08BD00BFCF
:1040A00000000020E0020020147A00000000000060
:1040B000147A000000000020034B1868984200D0DA
:1040C00070470020FCE700BF2002002030B1044A06
:1040D0005268904201D0006870470020704700BFCE
:1040E0002002002008B5044B1B680BB1002008BD5E
:1040F000FEF790FAFBE700BF00100020B3F1FF3F8E
:1041000008BFB2F1FF3F77D02DE9F0470446924651
:104110001D4681600023EFF31187202282F312886D
:10412000BFF36F8F26E01AF1010845F10009FFF790
:10413000D9FF18EB000349EBE070236160613BE0BD
:10414000521A66EB030302614361436863602060B7
:104150001C60446005E0294B5A682360626014606B
:104160005C60FFF7A9FF84423AD087F31188BFF360
:104170006F8F0123002B3DD153466FF00101B1EB4E
:104180000A014FF0FF3060EB0502002ACBDB1C4A2E
:10419000116852685B1842EB05026FF00101C91A01
:1041A00060EB020308461A46012973F1000301DAA5
:1041B0000120002220616261FFF77EFF0028CAD043
:1041C0000269466921696369914273EB060EB7DBA8
:1041D000891A63EB060321616361FFF777FFEDE75F
:1041E000084B1B68002BC0D103F017F80021FEF725
:1041F000D7F9BAE7BDE8F087704700BF200200207A
:10420000280500200010002070B5EFF31186202350
:1042100083F31288BFF36F8F2A4B1860FFF74CFFB0
:10422000044623E0284A136851685B1941EBE571A5
:104230001360516000220023C4E90423204602F0E9
:10424000D5FF86F31188BFF36F8FA3682046984788
:10425000EFF31186202383F31288BFF36F8F194A7F
:1042600013685B1B1360FFF727FF04463CB1256909
:104270006169144B1A68D317AA428B41D2DA44B150
:10428000236962690F4909685B1A62EBE172236175
:1042900062610D4A0B4D2868136851681B1841EB89
:1042A000E0711360516000242C6002F0B6FF2146DB
:1042B000FEF776F986F31188BFF36F8FFFF78CFE58
:1042C00070BD00BF001000202805002010B500229E
:1042D000EFF31184202383F31288BFF36F8F13460B
:1042E00011460CE0FFF7FEFE074A13685168C31839
:1042F00041EBE07184F31188BFF36F8F0122002A34
:10430000F0D0184610BD00BF28050020F8B5EFF327
:104310001183202282F31288BFF36F8F026822B1CB
:1043200083F31188BFF36F8FF8BD04461D46826A80
:10433000C36A52EA030105D0B3F1FF3F08BFB2F1EF
:10434000FF3F27D1236B01332363236A6BB185F3CE
:104350001188BFF36F8F236A20469847EFF31185CA
:10436000202383F31288BFF36F8F04F11803A4692D
:10437000A3423FD0002C3DD0204602F061FE002336
:10438000C4F8AC3085F31188BFF36F8F204602F07C
:1043900022FEC9E716461F46012A73F1000301DA1F
:1043A00001260027013E47F1FF3702F074FF01307C
:1043B00041F10001801947EB0101012871F1000171
:1043C00008DA6FF001024FF0FF330D492046FFF786
:1043D00095FEB7E702F05FFF013041F1000180195F
:1043E00047EB01036FF00102121A4FF0FF3161EB4E
:1043F0000303EAE785F31188BFF36F8F94E700BFEB
:104400000D430000F8B51D46EFF31187202383F319
:104410001288BFF36F8FB5F1FF3F08BFB2F1FF3FC6
:104420001FD00646144629466FF00102121B4FF0BA
:10443000FF3262EB0502002A18DB304602F00AFF69
:10444000DDE90623C6E90A230023336322462B460F
:104450000B493046FFF752FE87F31188BFF36F8F89
:10446000F8BD87F31188BFF36F8FF9E7012C71F165
:10447000000101DA01240025013C45F1FF35DCE7AC
:104480000D43000010B50A4C23681BB101232360C3
:10449000002010BD00F0EAF80028F7D00138062807
:1044A00003D8044B53F8200010BD034810BD00BFD3
:1044B000041000207C790000FE8FFFFFBFF34F8FB8
:1044C0000549064BCA6802F4E0621343CB60BFF3B0
:1044D0004F8F00BFFDE700BF00ED00E00400FA05CC
:1044E00010B4094B09490A4C4FF0FE32C3F80024BE
:1044F0004968C3F80424C3F80824C3F80C24002333
:10450000C4F8003510BC084700B002502802002053
:1045100000A00250D0E90012014BC3E9001270471D
:104520002802002010B5044650B1636813F0685F9C
:1045300005D0064A934202D000232360626010BD7A
:10454000034B04485B689847EFE700BF2C5F5CA90A
:104550002802002098790000C8B143680D4A9342B0
:1045600013D013F0685F0ED0012350E8002F1946D6
:1045700040E8001C9CF0000FF7D1012AF5D0BFF3F2
:104580005F8F0020704704487047044870476FF4FD
:10459000E04070472C5F5CA9E98FFFFFEA8FFFFFC7
:1045A00080B14368094A93420AD013F0685F05D08E
:1045B000BFF35F8F002303601846704704487047BD
:1045C000044870476FF4E040704700BF2C5F5CA95F
:1045D000E98FFFFFEA8FFFFF10B5044620B1044BBF
:1045E00063600022226010BD0248FFF779FFF6E702
:1045F0003A00003AC079000070B5D0E90023174CAA
:10460000174D6360D0E90230C4E902302260486887
:10461000D1F800C0134BC3E900C0D5F81801D1F898
:1046200008C0C3F808C010F0685FD1F80CC0096971
:10463000C3F80CC0196110D00B49C5F8BC11002398
:10464000C5E9453105F58A70C5F8B831904723684A
:1046500005F5DC70BDE87040184770BD44020020CD
:104660001C100020300200202C5F5CA938B500F03F
:104670002FF820B1032400F063F8204638BD00F085
:1046800031F898B900F0ACF898B90F4DD5F8283941
:104690001B0EF02B08D1D5F8242A0C4B9A420AD0D5
:1046A000072400F017F8E6E70624FAE7042420467A
:1046B00038BD0024F5E7012000F092F804460028F8
:1046C000F7D1C5F80C0AD8E700B002500000E0208E
:1046D0000020704700207047014BC3F8040A704760
:1046E00000B0025010B5114800F048F800B110BDFC
:1046F0000F4800F043F80028F9D10E4C204600F096
:104700003DF80028F3D10C4B0C481C6000F036F843
:1047100001460028EBD100F02DF8044608B12046F0
:1047200010BD00F03FF82046FAE700BF84020020E9
:10473000800200207C020020740200207802002009
:1047400008B5084800F024F8074800F021F80748A9
:1047500000F01EF8064800F01BF8BDE8084000F025
:104760000BB800BF84020020800200207C020020E1
:104770007802002000207047704700BF08B5034B47
:1047800002681B6810689847002008BD440200209A
:1047900008B5034B02685B6810689847002008BDA5
:1047A0004402002070B5094C094D2069AB68984758
:1047B00018B1084B08485B689847084AEB682069BD
:1047C00000211160BDE87040184700BF3002002092
:1047D0004402002028020020E47900001810002084
:1047E000F8B51A4D1A4E0446B26828699047E8B9E0
:1047F000184F3B684CB1A3B1012B19D0013B3B6072
:104800002869F36898470020F8BD43B9124A01218E
:10481000C2F800151149D1F81029002AFBD1013343
:104820003B60F368286998470020F8BD0C48F8BD44
:104830000A4AD2F81039002BFBD1074A6FF07E40AC
:10484000C2F80035FFF748FF3B68D7E73002002089
:10485000440200201810002000A0025000B00250B6
:10486000E98FFFFF2DE9F04F8DB043680293837805
:1048700015469A07804640F10D8100240E78002EDF
:1048800000F00A81252E0BD04B1C03930134029BB0
:104890004146304698470028C0F2F6800399EDE77C
:1048A0004E788B1C252E0393F0D00027B946BB46CB
:1048B000BBF11F0F38D8A6F12003102B0AD8DFE870
:1048C00003F02A0909300909092109090928092DD4
:1048D00009091F00A6F13003092B33D92A2E37D13D
:1048E0001BF0400F55F8043B40F08280002BA7BF1F
:1048F0004BF0200B9946C3F100094BF0280B01E067
:104900004BF0010B039B13F8016B0393002ECFD1E7
:1049100030E04BF0020B4BF0040BF3E74BF0080BCD
:10492000F0E74BF0100BEDE7BBF17F0F19D8A6F1C4
:104930003003092BD2D81BF0400F03D00A2101FB12
:104940000737DFE70A2101FB09394BF0200BD9E7D4
:104950002E2E06D11BF0400F40F09E804BF0400BF6
:10496000D0E76C2E31D02BD8682E36D06A2E3CD0B2
:104970004C2E3AD0002F46F02003B8BF2BF0400257
:10498000A3F16501BCBF1FFA82FB0027022901D9F0
:10499000612B2FD1073525F00705DFF8ACA20835CC
:1049A00007271BF0080F66D00AEB070B56465E453B
:1049B00063D1A4EB0A0A06EB0A02A9EB07096FE12F
:1049C000742E9FD07A2E9DD0D4E71BF0800F18BF95
:1049D0004BF4007B4BF0800B94E71BF4807F18BFF7
:1049E0004BF4007B4BF4807B8CE74BF4207B89E716
:1049F0001F4687E7A6F16301122900F2F080DFE885
:104A000011F013004F00EE00EE00EE00EE004F003C
:104A1000EE00EE00EE00EE00EE00FE00E900EE001B
:104A2000EE001B00EE00AF0055F8043B8DF8183087
:104A300001270DF1180AB4E755F804AB834BBAF11E
:104A4000000F08BF9A461BF0400F14BF39464FF0C5
:104A5000FF31504602F05DFC0746A2E7029B41464B
:104A60002020984700280FDB013EB742F6D34C4484
:104A7000A41BB14698E74E46F7E716F8010B029BD8
:104A800041469847002892DA98F8023043F0040330
:104A900088F802304FF0FF3420460DB0BDE8F08FAB
:104AA0001BF0800F34D01BF4007F2CD0073525F08D
:104AB0000705AA4669685AF8080B2BF0100500296B
:104AC000ADB237DA404261EB410145F480650DF14A
:104AD000180B0A235A4602F028FCA0EB0B030193A3
:104AE0006B0662D5019B25F001019F4289B240F31C
:104AF000A180002E00F0998015F0100240F09C80FB
:104B0000BB460D4623E0AA465AF8040BC117D4E76A
:104B1000AA461BF4807F5AF8041B01D10846F5E72A
:104B20001BF4007F15BF48B208B241F3C01141F336
:104B3000C031C2E750EA0103C9D11BF0400FC6D013
:104B4000002FC4D12BF0110295B2BB46019740F261
:104B5000064115EA01021CBF0BF1010B00222CE0FB
:104B60002BF010021FFA82FB0A231BF0800C49D0A5
:104B70001BF400711DBF073525F00705AA46AA469C
:104B80001ABF5AF8080B69685AF8040B50EA010575
:104B900045D12BF016051BF0400FADB242D0002FCF
:104BA00040D12BF0170295B2019715F0100248D0B2
:104BB000019B002E42D103F1010B29075AD4EB07C8
:104BC00006D5D9456FDD0199A9EB0B035F18CB46DC
:104BD0005B4649E04BF0100B10237826C5E7782B95
:104BE00004D1C6F1780343F01003BEE7029B4146AF
:104BF000252098470028FFF647AF023447E60823F0
:104C00000026B2E7AA461BF480715AF8040BBDD007
:104C10001BF400711ABFC0B2614680B2B6E72BF038
:104C2000060295B20DF1180B54E725F01105ADB24F
:104C3000BB468CE70D46B8E73B460D4603F1020B39
:104C4000BBE7DDF804B082E70B7A0000047A0000CD
:104C5000CDE904324146029B202098470028FFF608
:104C600013AF049B059A01339945F1DCA4EB0B01CA
:104C7000CC189B460AB3029B414630209847002837
:104C8000FFF602AF8EB901342744019B391B9942CC
:104C900024DC1D465DBB019AA9EB0B092244554655
:104CA0001446914435E0019F92E702344146304674
:104CB000029B98470028E7DAE6E640F206410D42FB
:104CC000E2D015F0020F14BF2B20202015F4806FC6
:104CD00004F10104414618BF2D20E9E7029B41463B
:104CE00030209847002804F10104CEDACCE606AB68
:104CF000013D4146585D029B98470028CADAC3E649
:104D0000029B414620209847002804F10104FFF649
:104D1000BBAEA9EB0403002BF2DCBFE5704738B54E
:104D200013468568046912F4801F07D012F4402FDF
:104D300004D012F0010F01D082F4402323F480123A
:104D400013F0010F0AD023684FF0010C0CFA01FC9C
:104D500043EA0C0323602B68984738BD23684FF063
:104D6000010C0CFA01FC23EA0C032360F3E708B5FD
:104D700003468C4600681979DA8842EA0C02FFF78C
:104D8000CEFF08BD08B5034600681B790121994094
:104D900083685B69984708BD08B520EAE070C117D1
:104DA000C90341EA5041C00340F2E733C0184FF451
:104DB0007A724FF0000341F10001FBF7A1F9FFF710
:104DC00079F808BD10B5131D50F8234074B9C368B5
:104DD000012494402343C360043240F82210CB00E6
:104DE0001A1D89B281520633C15210BDE20004324D
:104DF000835A4FEAC10C0CF1040E20F80E300CF16E
:104E0000060C20F80C40DB00063389B2C1528152F7
:104E1000EBE708B500EBC1035A885208B2FA82F2F8
:104E2000C2F11F02FFF7CEFF08BD70B50346043A7A
:104E3000C81D20F007000A4422F00702121AD50804
:104E4000186085600023C360B5FA85F1C1F1200EBA
:104E5000C1F124018900CE1DF10805E003F1040C25
:104E6000002440F82C4001337345F7DB4C00A4B21A
:104E700044804FF0000CA0F800C044F001044480CE
:104E80006B1A4FEA430E26F00704A51C20F805E034
:104E9000015322F00704951C20F805C00244035377
:104EA000538843F001035380FFF7B3FF70BD002028
:104EB00070470FB400B583B004A951F8040B0191F9
:104EC000FBF724FB03B05DF804EB04B0704701F07E
:104ED0000701038B23F007030B43038370472DE97E
:104EE000F04106460F469046816821B10C683CB1FE
:104EF00031B90C4604E00C4602E0234621461C462C
:104F000069B14D6843463A463046A847002CF4D074
:104F10002368002BF2D0002CF0D12346EEE7BDE849
:104F2000F081038B13F0070303D102680AB1032059
:104F30007047022B03D0012B06D000207047428B14
:104F4000002AF8D10420704703680BB10520704790
:104F50000020704710B504468C46038B002A07DBFF
:104F600003F007035A1F012A0ED9042B36D010BDB7
:104F7000D0E900018CE80300002323606360012175
:104F80002046FFF7A4FFF2E7D0E900018CE8030018
:104F9000002222606260062B1BD1DCF8003053B186
:104FA000628B013262831A461B68002BF7D0002AFD
:104FB000F5D11346F3E702212046FFF788FF20468C
:104FC000FFF7AFFF0028D2D0238B43F020032383C9
:104FD000CDE700212046FFF77AFFF0E70021FFF739
:104FE00076FF2046FFF79DFF0028C0D0238B43F0BB
:104FF00020032383BBE750B110B50C4651B1081D07
:1050000000F0C2F810B9A368032B06D810BD6FF0EA
:10501000150070476FF01500F8E76FF01500F5E721
:105020002DE9F04107460C4616461D461946201D3F
:1050300000F0C1F828B180462B463246214638465A
:10504000C047BDE8F0812DE9F04180460C46174687
:105050001E4604E033463A464046FFF7E1FF21682A
:1050600031B10D68256063688B42F3D16560F1E76B
:10507000BDE8F08108B5EFF311824FF0200C8CF3FE
:105080001288BFF36F8F41610121FBF775FA08BDEC
:10509000034670B181B10A688AB14A6892B10020B2
:1050A000186058609860D8601861586198611961FB
:1050B00070476FF0150070476FF0150070476FF084
:1050C000150070476FF01500704770B505460E4625
:1050D000FFF791FF041E2EDBEFF31182202383F3F1
:1050E0001288BFF36F8FB5F818C00CF0070C6B8BEC
:1050F0004FF6FF718B422CD06446BCF1020F08D0F2
:10510000BCF1060F19D8DFE80CF01E1818181E2A7B
:105110001E0001336B8301230021084628B10020C3
:105120003060686808B306606E6009BB82F311885E
:10513000BFF36F8F0BBB204670BD6FF004040023DC
:1051400019461846EAE7BCFA8CF149090023012008
:10515000E4E76FF00A04002319461846DEE76FF013
:105160008504002319461846D8E76E602E60DCE7F8
:1051700002212846FBF700FADDE7002362463146AC
:105180002846FFF74DFFD6E7024658B1436803F0C3
:105190000303012B03D0032B07D1036843B1002085
:1051A000906070476FF0150070476FF01500704702
:1051B0006FF0150070470346426802F003028160F9
:1051C000032A03D1006800225A6070470020FAE7E2
:1051D0007047FEE708B5012802D0FEF715F808BDB4
:1051E000EFF30583F9E708B501460068FFF7F2FF22
:1051F00008BD08B5FBF79CFBFBF7C6FB08BD00200C
:10520000704700230B70704708B500231370CB1E46
:10521000092B1AD8DFE803F005090D11191919191E
:1052200019141146FBF7C4FC10E00021FBF756FCF3
:105230000CE00021FBF7BCFB08E0FBF7FFFB05E0FF
:105240001146FFF7DEFF002000E0002008BD08B592
:1052500040B2FBF741FE08BD08B5013140B2FBF793
:1052600049FE08BD08B500210120FFF7B3FF08BDC6
:1052700061B662B680F31188BFF36F8F704772B664
:10528000002383F31188BFF36F8FBFF34F8F30BFBD
:1052900062B6BFF36F8F704772B6002383F3118835
:1052A000BFF36F8FBFF34F8F20BF80F31188BFF321
:1052B0006F8F62B6704743685A1E134206D11F2B88
:1052C00006D903681A4205D00020704700207047B5
:1052D000002070470120704700B585B00B6801932E
:1052E0004B688A68202B12D9B3F1004F11D8013BCB
:1052F000B3FA83F3C3F11F035B0003F03E031343D0
:10530000039301A9FBF702FF05B05DF804FB082336
:10531000F5E73E23F3E72DE9F84380460F4699462B
:105320001646002509E02146F0B2FFF7D5FF0646F4
:1053300010F1160F14D001360135BD4210DA05EB1D
:10534000450408EB84046268002AF5D0B9F1000F27
:10535000E9D02046FFF7AFFF0028E4D16FF0150633
:105360003046BDE8F883F0B585B0054603A8FBF7E5
:10537000B9F90646002424E0B3F5801F20D1576810
:1053800009589368202B64D9B3F1004F63D8013BCF
:10539000B3FA83F3C3F11F035B0003F03E0343F052
:1053A000885343F43023009701910293694628788B
:1053B000FBF7ACFE0028C0F2A8802B7801332B70DD
:1053C0000134B44280F0A4802001039901EB04125F
:1053D000D3681B0D1B05B3F5000F5ED01DD8B3F5C8
:1053E000001F3AD0B3F5800FC6D1576809589368AB
:1053F000202B4ED9B3F1004F4DD8013BB3FA83F3C4
:10540000C3F11F035B0003F03E0343F0E06343F48A
:105410000033009701910293C8E7B3F1807F56D023
:10542000B3F1007FCCD1576809589368202B68D915
:10543000B3F1004F67D8013BB3FA83F3C3F11F0305
:105440005B0003F03E0343F4802300970191029335
:10545000ACE70823A3E73E23A1E757680958936800
:10546000202B12D9B3F1004F11D8013BB3FA83F3CB
:10547000C3F11F035B0003F03E0343F0885343F482
:10548000002300970191029390E70823F5E73E235C
:10549000F3E70823B9E73E23B7E75768095893684D
:1054A000202B10D9B3F1004F0FD8013BB3FA83F38F
:1054B000C3F11F035B0003F03E0343F082730097C8
:1054C0000191029372E70823F7E73E23F5E7576857
:1054D00009589368202B10D9B3F1004F0FD8013B26
:1054E000B3FA83F3C3F11F035B0003F03E0343F001
:1054F000887300970191029358E70823F7E73E234A
:10550000F5E708239FE73E239DE76FF0150000E0D5
:10551000002005B0F0BD08B5FBF70CFE08BD08B5CE
:10552000FBF712FE08BD08B5FBF782FE002008BDA0
:105530004FF08053D3F83021D3F83431082A01D00A
:1055400000207047022B01D00020704701207047D7
:10555000034619B101290CD000207047D3F8180474
:10556000C0F300407AB1D3F8183403F0030313609A
:105570007047D3F80C04C0F3004022B1D3F80C34C8
:1055800003F0010313707047006901EB41018900CA
:10559000383108447047406800EBC100704700692B
:1055A000C1EBC10100EB8100704708B5C9B2FFF73C
:1055B000EBFF806800F0070008BDEFF311822023A5
:1055C00083F31288BFF36F8F036813F0C00301D019
:1055D0008B4207D101230360002082F31188BFF3BF
:1055E0006F8F70474FF0FF30F7E7EFF31182202302
:1055F00083F31288BFF36F8F036803F0C00C03F0CE
:105600000703012B08D08C4509D04FF0FF3082F3FF
:105610001188BFF36F8F704701600020F7E76FF0CC
:105620007700F4E7EFF31182202383F31288BFF3AE
:105630006F8F036803F0C00343F00203036082F33B
:105640001188BFF36F8F7047F8B506460C46FFF719
:105650009BFF05684768002340F8083BFFF7E2FF1F
:105660001DB13A4621463046A847F8BD70B50646FA
:105670001546CCB22146FFF787FF29460830FFF7D1
:105680009CFF002806DB21463046FFF784FF436875
:105690009847002070BD08B58022FFF7E7FF08BDDE
:1056A0002DE9F041064690461F46CDB22946FFF748
:1056B0006BFF044606990830FFF797FF002809DBC7
:1056C000C4F80080676029463046FFF764FF03682E
:1056D00098470020BDE8F08110B582B08024009486
:1056E000FFF7DEFF02B010BD10B51446C9B2FFF7D8
:1056F00056FF0021A04710BD08B50120FDF734F981
:1057000008BD08B50020FDF72FF908BD08B5012038
:1057100000F0E0FF08BD08B5002000F0DBFF08BD89
:1057200008B520EAE070C117C90341EA5041C0033F
:1057300040F2E733C0184FF47A724FF0000341F1A2
:105740000001FAF7DDFCFEF7B5FB08BD08B5104611
:10575000FDF7CCFF08BD0B4639B1116819604168EF
:105760008A4209D0002313607047136803604168C0
:105770008A42F7D14360F5E74360F3E708B50A468C
:105780000368002101E019461B682BB19342FAD14E
:10579000FFF7E1FF012000E0002008BD70B50446DE
:1057A0000D461646036833B1FFF7E8FF70B91EB91E
:1057B0006FF0150006E032B123682B602560636846
:1057C00043B1002070BD6FF01500FBE7002EF3D150
:1057D0000020F7E765600020F4E770B50E46154637
:1057E000016821B10C683CB131B90C4604E00C46AB
:1057F00002E0234621461C4671B18A682A4002D045
:105800004B6830469847002CF3D02368002BF1D02A
:10581000002CEFD12346EDE770BD0069003818BFBA
:105820000120704710F0100F04D110F0200F03D1A9
:1058300000207047032070470120704743685B6871
:10584000D3F810350B600020704743685B6802EAAC
:10585000010021EA0201C3F80805C3F80C15002075
:10586000704743685B68C3F80815002070474368B9
:105870005B68C3F80C150020704743685A68D2F87B
:10588000043521EA03000B40C2F80805C2F80C35C4
:1058900000207047B0F5800F07D0B1F1C06F0DD078
:1058A000B1F1007F08D001207047B1F1007F01D035
:1058B000052070470420704702207047032070477E
:1058C00008B500690430FFF769FF08BD10B500F0A6
:1058D0001F044009FBF71CFF30B10146006901229B
:1058E000A2400430FFF779FF10BD00B54368136094
:1058F00001E008331360136890F808C0D0F804E0A2
:105900000EEBCC0C634505D293F805C08C45F0D165
:10591000002001E06FF001005DF804FB08B511B94B
:10592000FCF7B6F808BDFCF79FF8FBE743681B6877
:10593000EFF31182202181F31288BFF36F8FD3F828
:10594000201131B10021C3F82011D3F82011012119
:10595000D96082F31188BFF36F8F704770B582B042
:1059600006460C4605694B79012B06D0032B11D056
:105970006FF08503184602B070BD00238DF8063025
:10598000A379032B37D1E37943B1012B10D06FF00A
:105990008503EFE710238DF80630F1E700238DF83B
:1059A0000430237943B1022B21D06FF08503E1E766
:1059B00001238DF80430F4E700238DF805302168C9
:1059C0003046FCF7C7F90346C0B9726810689DF805
:1059D00005109DF806609DF8042031430A43C0F885
:1059E0006C25043594E8030085E80300C2E70E2324
:1059F0008DF80530E3E76FF08503BBE76FF08503B3
:105A0000B8E743681B68D3F88004C3F88004704784
:105A100043681A685B6803F00203D2F8581129B989
:105A200033B9D2F820312BB90020704701207047DC
:105A300000207047012070470369DB6823B1D3F869
:105A4000C0201143C3F8C01043681B680822C3F884
:105A50000025704710B543681C68C4F84415C4F8A5
:105A600048250022C4F82021D4F82011C4F8582178
:105A7000D4F858215B6813F0100F02D10123A36002
:105A800010BD0121FFF7D8FF4FF48003C4F80433A1
:105A9000F4E743681B680022C3F800257047436899
:105AA0001B680422C3F804230020704738B505465C
:105AB0000C46FFF7ADFF20B9E368012283F8CD2043
:105AC00038BDE368002283F8CD20E3684FF0FF3251
:105AD000C3F8BC20E3685A6919692846FFF7BAFF82
